:020000040800F2
:100000000050002021020008270200082B020008EF
:100010009D020008A1020008E9020008000000009B
:100020000000000000000000000000003103000894
:10003000350300080000000039030008090B000820
:100040004D0300084D0300084D0300084D03000850
:100050004D0300084D0300084D0300084D03000840
:100060004D0300084D0300084D0300084D03000830
:100070004D0300084D0300084D0300084D03000820
:100080004D0300084D0300084D0300084D03000810
:100090004D0300084D0300084D0300084D03000800
:1000A0004D0300084D0300084D0300084D030008F0
:1000B0004D0300084D0300084D0300084D030008E0
:1000C0004D0300084D0300084D0300084D030008D0
:1000D0004D0300084D0300084D0300084D030008C0
:1000E0004D0300084D0300084D0300080000000008
:1000F0000000000000000000000000000000000000
:1001000000000000000000005FF808F100B583B0B7
:1001100000F0AAF9304B314A1360314A1360314B79
:10012000314A32498B4204D21168196004330432D7
:10013000F7E72A4B1A682E4B9A4200D0FEE7284B6D
:100140001A682C4B9A42F9D1234B2B4A13602B4A45
:1001500013602B4B02E000221A600433294A9342B9
:10016000F9D3254B1B6813B9244B1B6803B1FEE779
:1001700000F086F9694601A800F022F9224C234BD1
:10018000E41AA4100025AC4214DC214C214BE41AE3
:10019000A4100025AC4213DC0099019800F0D0FCBB
:1001A00005461D4C1D4BE41AA410002C0EDC2846FD
:1001B00000F0E2F8154B53F8253098470135E2E797
:1001C000144B53F8253098470135E3E7013C134BB6
:1001D00053F824309847E8E7BABADECA0000002096
:1001E000E400002000000020C0B10008E80000206A
:1001F0007856341232547698E80000208C010020A2
:10020000E80000209001002078030008780300082F
:1002100078030008780300087803000878030008D2
:1002200008B5FFF773FF00BEFEE71EF0040F0CBF1A
:10023000EFF30880EFF309807146414A10472DE93A
:10024000F04182B004468846124B5E6B9F6B9D6AFC
:100250001B6B13F0020F03D00E4BDB6A002B0CDB81
:100260000D4800F0B5F8CDF800803B4632462946EF
:10027000204600F009F900BEFEE74BF6AB6100F046
:100280007DF90028ECD0034B4FF00042DA6202B057
:10029000BDE8F08100ED00E00015000800BEFEE7BB
:1002A0001EF0040F0CBFEFF30880EFF309807146D6
:1002B000244A10472DE9F04182B004468846084B95
:1002C0005E6B9F6B9D6A074800F082F8CDF8008056
:1002D0003B4632462946204600F0D6F800BEFEE7EF
:1002E00000ED00E0101500081EF0040F0CBFEFF346
:1002F0000880EFF309807146134A10472DE9F04159
:1003000082B004468846084B5E6B9F6B9D6A074827
:1003100000F05EF8CDF800803B4632462946204684
:1003200000F0B2F800BEFEE700ED00E01C1500088A
:1003300000BEFEE700BEFEE700BEFEE7704700001D
:100340003F020008B5020008FD02000800BEFEE7FB
:10035000C0B1000800000020E8000020C0B1000883
:100360000000000000000000E800002090010020D4
:08037000000000000000000085
:10037800FEE7000008B503460C4A12685AB10B4A5A
:100388001068033323F003030344094A934206D851
:10039800064A136008BD054A06491160EFE700F0F8
:1003A800EDFB0C2303604FF0FF30F3E7EC00002077
:1003B800004C00209001002001230360014B0B60DA
:1003C800704700BF040000200FB400B583B004AB31
:1003D80053F8042B01938021064800F001FC002803
:1003E80003DD0146034800F037F803B05DF804EB7D
:1003F80004B07047F40000202DE9F04385B00446AE
:100408000F4643560BB10E461EE0042528462146EA
:10041800ABBE0446384605B0BDE8F08314F9011BAD
:1004280004AA1A4402F8101C0133AB42F6D304AAFA
:100438001344002203F8102C4FF00408E946404604
:100448004946ABBE8046761B002EE3D03546102EBB
:1004580028BF10250023E8E708B5FFF7CDFF08BD42
:1004680008B500F0FDF8024A024B9A6008BD00BFCB
:100478000000000800ED00E008B500F019F908BD1B
:10048800F8B504460D4617461E462748FFF79CFF59
:1004980021682648FFF798FF61682548FFF794FF11
:1004A800A1682448FFF790FFE1682348FFF78CFF15
:1004B80021692248FFF788FF61692148FFF784FF17
:1004C800A1692048FFF780FFE1691F48FFF77CFF1B
:1004D8001E48FFF779FF29461D48FFF775FF1D4C99
:1004E800E16A1D48FFF770FF216B1C48FFF76CFF9E
:1004F800E16B1B48FFF768FF15F0800F0AD115F470
:10050800004F0CD11748FFF75FFF06991648FFF711
:100518005BFFF8BD39461548FFF756FFEFE7314650
:100528001348FFF751FFEDE7E4130008F413000840
:1005380004140008141400082414000834140008D3
:1005480044140008541400086414000874140008C3
:100558008014000800ED00E090140008A0140008C2
:10056800B0140008E0140008E8140008C0140008DB
:10057800D014000883691A888A4201D00020704785
:100588000268033A012A03D80233836101207047C5
:100598000020704782B00023019300932C4A13680F
:1005A80043F4803313602A4B1B6803F40033009331
:1005B800019B01330193009B1BB9019BB3F5A06F0D
:1005C800F1D1234B1B6813F4003F06D0012300939D
:1005D800009B012B04D002B0704700230093F7E77B
:1005E8001C4B1A6842F010021A601A6822F00302C3
:1005F8001A601A6842F002021A60A3F580535A681A
:100608005A605A685A605A6842F480625A605A6856
:1006180022F47C125A605A6842F4E8125A601A6846
:1006280042F080721A600A4B1B6813F0007FFAD000
:10063800074B5A6822F003025A605A6842F00202D5
:100648005A60034B5B6803F00C03082BF9D1C2E72F
:10065800001002400020024008B5FFF79BFF08BDCC
:1006680008B5104B1A6842F001021A6059680E4A20
:100678000A405A601A6822F0847222F480321A60A2
:100688001A6822F480221A605A6822F4FE025A601C
:100698004FF41F029A60FFF7DFFF044B4FF0006230
:1006A8009A6008BD001002400000FFF800ED00E06D
:1006B8001F4B5B6803F00C03042B15D0082B17D0D5
:1006C8001BB11C4B1C4A1A6002E01A4B1A4A1A60EA
:1006D800174B5B68C3F30313184AD35CDAB21549A6
:1006E8000B68D3400B607047124B134A1A60EFE750
:1006F8000F4A53685268C3F38343023312F4803FAE
:100708000AD00B4A526812F4003F0BD00C4A02FB85
:1007180003F3084A1360DBE7094A02FB03F3054ABF
:100728001360D5E7044A02FB03F3024A1360CFE7DC
:10073800001002401C00002000127A000C0000206B
:1007480000093D0008B502220821002000F050F8F9
:1007580002220921002000F04BF802220A21002081
:1007680000F046F802220B21002000F041F8022296
:100778000C21002000F03CF802220F21002000F09C
:1007880037F802220D21104600F032F802220E211D
:10079800104600F02DF808BD10B5002410E0114BEC
:1007A8001B889BB2104AD25C2241104B03EB4401D8
:1007B80002F00102497813F8140000F097F80134A8
:1007C800072CECDD074A138801339BB2138013888A
:1007D8009BB249F65F42934200D010BD014B002204
:1007E8001A80FAE7740100202C1500082000002068
:1007F80010B4012827D018B1022847D010BC704780
:10080800072912D90F29F9D8A1F10804E4B2314B0C
:100818001968A4000F20A04021EA00011960186897
:1008280002FA04F101431960E8E72B4B18688900C4
:100838000F248C4020EA04001860186802FA01F1BD
:1008480001431960DAE7072912D90F29D6D8A1F18F
:100858000800C0B2214B196880000F24844021EAA7
:10086800040119601C6802FA00F121431960C5E708
:100878001B4B186889000F248C4020EA040018607C
:10088800186802FA01F101431960B7E7072912D97C
:100898000F29B3D8A1F10803DBB2124801689B0005
:1008A8000F249C4021EA04010160046802FA03F164
:1008B80021430160A2E70C4B186889000F248C4083
:1008C80020EA04001860186802FA01F1014319606F
:1008D80094E700BF0408014000080140040C0140EF
:1008E800000C01400410014000100140012815D0FF
:1008F80010B1022824D07047012A08D0194803688B
:10090800012202FA01F123EA01010160704715484A
:10091800036802FA01F1194301607047012A08D0FF
:1009280011480368012202FA01F123EA010101607A
:1009380070470D48036802FA01F1194301607047D6
:10094800012A08D009480368012202FA01F123EAC2
:100958000101016070470548036802FA01F1194373
:10096800016070470C0801400C0C01400C1001405C
:10097800002201E000BF013240F29A2303FB00F39A
:100988009342F7D87047000010B500240AE0074BDF
:1009980003EB44010122497813F81400FFF7A6FF7E
:1009A8000134E4B2072CF2D910BD00BF300000209A
:1009B80038B5054600240CE045FA04F2064B03EB73
:1009C800440102F00102497813F81400FFF78EFF82
:1009D8000134072CF0DD38BD4000002038B5002474
:1009E80011E00A4B650059190222497813F81400DE
:1009F800FFF7FEFE064B1D440222697813F8140027
:100A0800FFF7F6FE0134072CEBDD38BD400000206F
:100A180030000020F8B5064600251DE0FFF7B4FFBA
:100A28002B19F05CFFF7C4FF0E4B03EB44010022C7
:100A3800497813F81400FFF759FF0220FFF798FFD1
:100A48000134E4B2072CE9D90137FFB2092F01D8E4
:100A58000024F7E70835EDB22F2D01D80027F5E778
:100A6800F8BD00BF30000020034B4FF480321A60FD
:100A7800043301221A607047001002401F291CD855
:100A880001280BD010B1022810D070470B4803681A
:100A9800012202FA01F1194301607047084803680E
:100AA800012202FA01F11943016070470548036801
:100AB800012202FA01F11943016070471410024043
:100AC8001C10024018100240014B00221A607047A7
:100AD80010E000E0074B58601A6842F001021A6003
:100AE800054A1160054A012111701A6842F0020294
:100AF8001A60704710E000E0780100207C010020B7
:100B080008B50A4B1B785BB9094B1A6822F0020238
:100B18001A601A6822F001021A6000225A609A606C
:100B2800044B1B689847024B1B6808BD7C010020DA
:100B380010E000E07801002008B5FFF795FF0221DA
:100B48000846FFF79BFF03210220FFF797FF0421C8
:100B58000220FFF793FFFFF7F5FDFFF7B5FF054903
:100B68007D20FFF7B7FFFFF739FF0348FFF752FF74
:100B7800FBE700BFA107000850000020014B1868E0
:100B8800704700BF8000002030B5141E05469BB09A
:100B9800184605DA8B234FF0FF302B601BB030BDB1
:100BA8004FF40273ADF80C300CBF234604F1FF3349
:100BB800029305934FF6FF7300910491ADF80E3040
:100BC80002461E9B6946284600F072F8431CBCBFCB
:100BD8008B232B60002CE1D00022009B1A70DDE7EC
:100BE80007B5009313460A46014603480068FFF715
:100BF800CBFF03B05DF804FB800000202DE9F0472F
:100C08008E6882469E420C469046994637D88A8915
:100C180012F4906F31D00223256809696F1A65694B
:100C280005EB450595FBF3F509F101033B449D42AE
:100C380038BF1D46530530D5294600F035FB06461A
:100C480050B90C234FF0FF30CAF80030A38943F0A5
:100C58004003A381BDE8F0873A46216900F0B4FA61
:100C6800A38923F4906343F08003A38126613E4463
:100C780026604E466561ED1BA5604E4500D94E467F
:100C880032464146206800F0AAFAA36800209B1B60
:100C9800A36023681E442660DCE72A4600F05EFB5A
:100CA80006460028E2D12169504600F0B1FAC8E7AB
:100CB8002DE9F04F9DB003938B8980461D060C46A5
:100CC80016460FD50B696BB9402100F0EDFA20608C
:100CD800206128B90C23C8F800304FF0FF30C7E076
:100CE800402363610023099320238DF829303023A2
:100CF8004FF0010B8DF82A3037463D4615F8013B79
:100D08000BB1252B3ED1B7EB060A0BD05346324622
:100D180021464046FFF772FF013000F0A480099B8E
:100D2800534409933B78002B00F09D8000234FF03B
:100D3800FF32CDE90523049307938DF853301A93B6
:100D48002F46052217F8011B4F4800F02FFA049B85
:100D5800D0B9D90644BF20228DF853201A0744BFC2
:100D68002B228DF853202A782A2A15D02F460020C6
:100D78000A25079A394611F8013B303B092B4DD912
:100D8800B8B10FE02F46B8E73F4A3D46801A0BFA44
:100D980000F018430490D3E7039A111D12680391D9
:100DA800002A01DB079204E0524243F00203079253
:100DB80004933B782E2B0CD17B782A2B33D1039BC1
:100DC80002371A1D1B680392002BB8BF4FF0FF3380
:100DD80005932E4D03223978284600F0E7F938B1FB
:100DE8004023401B03FA00F0049B0137034304939C
:100DF8003978062226487E1C8DF8281000F0D6F98E
:100E0800002838D0234B13BB039B073323F0070379
:100E180008330393099B4B4409936DE705FB0232A2
:100E280001200F46A6E700230A2519460137059336
:100E3800384610F8012B303A092A03D9002BC8D0BC
:100E48000591C6E705FB012101230746F0E703AB3F
:100E580000932246104B04A94046AFF30080B0F13E
:100E6800FF3F8146D6D1A3895B063FF536AF099887
:100E78001DB0BDE8F08F03AB00932246064B04A9D2
:100E8800404600F081F8EAE78BB1000891B100080C
:100E980095B1000800000000050C00082DE9F04796
:100EA80091461F468A680B6906469342B8BF1346A7
:100EB800C9F8003091F843200C46DDF8208012B1C3
:100EC8000133C9F800302368990642BFD9F80030C9
:100ED8000233C9F80030256815F0060507D104F17A
:100EE800190AE368D9F800209B1AAB4229DC94F868
:100EF80043302268003318BF012392062ED404F130
:100F0800430239463046C047013021D02368E5689E
:100F180003F00603042B18BF0025D9F800204FF072
:100F2800000908BFAD1AA368226908BF25EAE5755C
:100F38009342C4BF9B1AED181A344D451AD10020AC
:100F480008E00123524639463046C047013003D1F4
:100F58004FF0FF30BDE8F0870135C2E73020E118D7
:100F680081F843005A1C94F845102244023382F851
:100F78004310C4E70123224639463046C0470130B2
:100F8800E6D009F10109D8E72DE9F04301F1430C56
:100F98000C46097E85B06E291746064698460C9A77
:100FA80000F0B38022D8632936D00AD8002900F08F
:100FB800B980582900F0838004F1420584F8421072
:100FC80032E0642901D06929F6D120681368050642
:100FD80003F104012AD51B681160002B03DA2D22C6
:100FE8005B4284F843206F480A2239E0732900F0F5
:100FF8009D8008D86F2920D07029DDD1236843F05F
:101008002003236003E0752917D07829D4D17823E9
:10101800654884F8453055E0136804F14205191D08
:101028001B68116084F8423001238CE01B6810F0C3
:10103800400F116018BF1BB2CFE713682568181D51
:101048001060280601D51B6802E06806FBD51B88DE
:101058006F2914BF0A2208225248002184F843103D
:101068006568002DA560C0F29580216821F0040113
:101078002160002B3DD1002D40F08E806546082A66
:101088000BD12368DB0708D5236962689A42DEBF63
:10109800302305F8013C05F1FF35ACEB050323616E
:1010A800CDF800803B4603AA21463046FFF7F6FEFE
:1010B80001304DD14FF0FF3005B0BDE8F08339481D
:1010C80084F84510136821681D1D1B6815600A0601
:1010D8000BD5CA0744BF41F0200121601BB9226823
:1010E80022F0200222601022B7E74D0648BF9BB2CB
:1010F800EFE76546B3FBF2F102FB1133C35C05F879
:10110800013D0B460029F5D1B9E713682568181D7C
:101118006169106028061B6801D5196002E06A063B
:10112800FBD51980002365462361B9E71368191DAB
:1011380011601D6862680021284600F037F808B180
:10114800401B606063682361002384F84330A7E78D
:1011580023692A4639463046C0470130AAD0236859
:101168009B0713D4E068039B9842B8BF1846A3E7CF
:1011780001234A4639463046C04701309AD00135E6
:10118800E368039A9B1AAB42F2DCEBE7002504F113
:101198001909F5E7002BACD1037804F1420584F86E
:1011A80042306CE79CB10008ADB1000810B5C9B277
:1011B80002449042034601D1002303E01C78013029
:1011C8008C42F6D1184610BD10B5431E0A44914210
:1011D80000D110BD11F8014B03F8014FF7E7884221
:1011E80010B501EB020307D8421E99420AD011F844
:1011F800014B02F8014FF8E78342F5D98118D21A5A
:10120800D34200D110BD13F8014D01F8014DF7E7A5
:1012180038B50546002943D051F8043C0C1F002B73
:10122800B8BFE41800F0D0F81E4A1368104633B966
:10123800636014602846BDE8384000F0C6B8A34291
:101248000BD921686218934201BF1A685B6852186B
:10125800226063600460EDE713465A680AB1A2424F
:10126800FAD919685818A0420BD1206801445818B7
:1012780082421960DED110685268014419605A60D0
:10128800D8E702D90C232B60D4E7206821188A42BA
:1012980001BF116852680918216062605C60C9E783
:1012A80038BD00BF8001002070B5CD1C25F00305B6
:1012B80008350C2D38BF0C25002D064601DBA94248
:1012C80003D90C233360002070BD00F07DF8214A5B
:1012D8001468214691B9204C23681BB9304600F0A8
:1012E80063F820602946304600F05EF8431C24D19C
:1012F8000C233046336000F068F8E4E70B685B1BAA
:1013080018D40B2B0FD90B60CC18CD50304600F0F9
:101318005CF804F10B00231D20F00700C31AD3D09A
:101328005A42E250D0E74B688C4216BF63601360A4
:101338000C46EBE70C464968CCE7C41C24F00304D0
:10134800A04205D0211A304600F02EF80130CFD047
:101358002560DBE78001002084010020F8B50746FE
:1013680014460E4621B9BDE8F8401146FFF79CBF68
:1013780022B9FFF74DFF25462846F8BD00F026F8AC
:10138800A0420FD221463846FFF78EFF05460028B7
:10139800F2D031462246FFF717FF31463846FFF7AD
:1013A80037FFE9E73546E7E738B50023054C05463A
:1013B80008462360FEF7DEFF431C02D1236803B111
:1013C8002B6038BD880100207047704751F8043CF5
:1013D800181F002BBCBF0B58C018704753746163AB
:1013E8006B206672616D653A0A0000002052302059
:1013F8003D2020253038580A0000000020523120B6
:101408003D2020253038580A0000000020523220A4
:101418003D2020253038580A000000002052332093
:101428003D2020253038580A000000002052313273
:10143800203D20253038580A00000000204C52205A
:101448003D2020253038580A000000002050432055
:101458003D2020253038580A000000002050535203
:10146800203D20253038580A000000004653522FEE
:101478004641523A0A0000002043465352203D207C
:1014880020253038580A00002048465352203D2075
:1014980020253038580A00002044465352203D2069
:1014A80020253038580A00002041465352203D205C
:1014B80020253038580A0000204D4D464152203D25
:1014C80020253038580A00002042464152203D204D
:1014D80020253038580A00004D6973630A0000005F
:1014E800204C522F4558435F52455455524E3D208B
:1014F800253038580A0000005B48617264466175FF
:101508006C745D0A000000005B4275734661756C7F
:10151800745D0A005B55736167654661756C745D3F
:101528000A000000745F4B4E6E808F7D6B685D60B3
:10153800656F7377716E716660536891A4A4877143
:1015480065676D828C8893898D86776F8FA8B6B80A
:1015580098917E7D8A939C9BA09A979084767CA78D
:10156800BCC6A78E86808E929E99A19593978C7FF4
:101578007C96AEC4B19484787F8787849094838165
:10158800796D667A9AB2A577675A5F6A6C6B7B84C5
:10159800776C6F635B6E86A79D775A4C505E5E5B77
:1015A8006677706669614F4E719294775548464DDB
:1015B80057555D6A716D797866626D8B8F7C655958
:1015C80057637574777E817263685C5C718FB2A7AC
:1015D8008874656674717483918F848E8787889DFB
:1015E800BFB8997C757A90938994958C7C8888810A
:1015F80094AAD0D0AF877D7B7E8C8799A5AA979433
:101608008C7C7F8BB3C0B796837D81877C869296CE
:10161800857A7E747C85A7B9A886676765767076B3
:101628007D858070776B6A6D849D9B815F58596357
:101638005E5368797A6961544E59749F9E84594DF6
:101648004C576056616A7163615A535F75A5A88DDE
:101658006A575D5E6A5B667B81746D7766626A96BF
:10166800AB9E816C706C766B6E838E90898F85884B
:1016780092ABC2B8A284837F8C8D8D979794838F09
:10168800828094A4C4C9AC878E8D898A8E979BA9C1
:1016980095958E8A8E94B3C6B3897E7D88858D9BF9
:1016A8008D9D7A6B7F718586ABB89F7C72736663FC
:1016B8005E70738F7B65766E707C83989679605ABE
:1016C800565D5B65647165435D4A5B798DA1A07168
:1016D8005C52504A41565774736C6A6D626B668CE3
:1016E800A2856E6065545872787484637273757FCE
:1016F80084AEAE9274696A6667828499A4897476A6
:101708007C9BA4B9CEBDB199977966746971837DC4
:1017180086818D989AA5CAB9A59C7E82697B8785A2
:10172800828F9B989BA9C1CCD9C3A083795A33399E
:10173800576F928B8691969C919CB1A89190737CDF
:101748005C435A6A8E909192A89E806360725A4E4A
:10175800474F605C696D84846A50374B4D668E963E
:101768009382626562647C75868267553A3E4E5004
:1017780055768692A5866E4E5B55414B516B748AA1
:10178800829898A0A4A0B2967A667D7C8274636DD4
:1017980061697681ABD3D0C3B3A0825D59808EA531
:1017A800A291A6908792B0DBDEC9CCBE947A525B38
:1017B80077827C7D8CA4C2ACB3B5B5AA9990796DBB
:1017C8006C949CA88B606A84A0A2A3B0BFB09D7CD7
:1017D8005046484C5E77878B8175796B635F6E8561
:1017E80099A5936F59553E424C6470767B7B77740C
:1017F8006E5563726754495C82806B54444D4F4701
:10180800526E8FA5A5A09A63323957819083798348
:101818007861463E627E97B0B9B28E6A5D64686E42
:10182800737D99A3969C9CABBA8C868B899AA79F4B
:10183800A7A37E685A597992A7C4CAD1C3A970527E
:10184800617FA1A5A29E999D9A8F8E7E7CA1BFD40F
:10185800BB85767F826F4B4A78989C8F909A9E9230
:101868007B73706A69747D8074707C7C785B41637B
:1018780092B4B99E7C61443E3C48596577736D616A
:10188800646A6C686F848775575A59626C646E73A2
:1018980053436082A7A78D8D9170423347798B6D32
:1018A80073807E775D5C7D91A0B4A8916A54698548
:1018B80092907F60778B95A9B1B8C0B38F7C5B5C41
:1018C800879AA59285908F7E6F859AB8BDBCB6A180
:1018D8008974878DA37E6384A0BBA99694ABA28DDF
:1018E8007E6F8482818D958B757A747E76799296D7
:1018F8009B959E918D6D6B694A5F6B91A8A47D69DC
:101908006A5F60526E8C8D7556555C664B50676C7D
:1019180072666C6F7974898F7F682A2B5484968CD1
:101928007472744A3E405C85989C8B6D4B4F57642B
:101938006A637884856F686D839A99A47A58597810
:101948009EA79681847F795E5B83A9B7A89C9494AF
:101958007F6C778193949395958D879C9CB0987CA8
:1019680095A9B9A89686958F797379929EA8A39D13
:101978009096A393846C758E948C78808A9A8682CC
:10198800745C7C9BC3BF9F6D61655B62546991A069
:10199800896D5C677C73787472736962585E5C7178
:1019A8007B7A64354871A0AA9C7C6A5C39353455C9
:1019B8007888867A65515C5E66727D8F8D77524B2A
:1019C800546E7A787758647E9EA7A29285886B5D5C
:1019D80049567D9AA08D7E7A857E74778BA7B3AFA2
:1019E800968A7E7C898D8D6C759FC4CDB8988A9DAA
:1019F80093897D869CA39B9089848E9699969191D4
:101A08009FABA09D989B9E8B7858628EBACDBD9A4D
:101A18007D7A7172748096A79C7A5C546B818582FA
:101A28008689877D6F757886918F7D432E4D7FA03F
:101A38009D7E646560514450739B9677634B495013
:101A48005A6371787E877B6A5C67798983575062AD
:101A58007C908B71636F736F625B6888969A8971EB
:101A68007C87816B6F7C94A9A09E8D8D8D939978CE
:101A7800758AB2D0B9896C71828D8A8994AFAB9A14
:101A88008C869FA7AFA48D8380939CA2A3ABAFA99C
:101A98009A6B5E7EB0D3D1AA7E726C675F6A8AA8A1
:101AA800B5A0816467849E9A8D9088826E63697DF3
:101AB8009B9B946D494D71A6B3A279676150413ED5
:101AC80052779A8F6F53515C6673717777807A5724
:101AD8004D47687A857B5050638292897067656547
:101AE8005D565F74897C6F635C6C7072666B809105
:101AF8009B8C89788989856F4B6488BDC9B18E753F
:101B080081838A8482929C997F717E979F9B8E8B1A
:101B1800878FACACA598A8A6A593606B89C0D4C4E0
:101B2800A8858277847F7F98AFB1957E6B6F81910E
:101B38009A919296907A7A8D9DA9A78D5344598C43
:101B4800A8AC997A776A59495678929B8266514C23
:101B58006C74675C626A787A685D667B887A473EEF
:101B68005475938E6F5763756B573E4A708C90729D
:101B78005D54636C707066657D8A7F777685898F22
:101B88007D5A617EAEB89D816F7B808A88839196ED
:101B9800988F858192A2A299868688867B92A8B31F
:101BA800AD9B846686A8CCD6BB9A7D8C8A857A83C1
:101BB800A7B4B28E7D7A91AAA599858B89918669F9
:101BC8006382B1BBA2604A6AAAD4BD996D776F6B74
:101BD80063566F8AB2A3774B436A8B988571646D9D
:101BE8006C5D5C5B6D718A6D41425E96A89E69571B
:101BF800575B5B454D607A797B76625C586A6C749A
:101C08007378796B69596D76786E576177979E9E70
:101C18008C7E817D745B626A8DA39782718A9396AC
:101C28007E798796ABA496838C9899956F556BB1FE
:101C3800D4D2A8737D8F9C8C7E7C90AAA49784773D
:101C48007FA7AF9A7F7694ABAE978D8E909A81607E
:101C580055729EC3C89B6C5D6D7A77757E8F988B25
:101C68006E5A5F7A83888D7E6F666C737A7C818208
:101C78007855303A66979D886957574A4B5362772B
:101C880084876F523F4767746A6774808164505CC9
:101C980076868D83533845719BA480545E77806C1B
:101CA80059678DABA1896C5D6C808F938C8097ADE3
:101CB8009D806E82A7BEAB7D6A7FA4BBB4977D7BF7
:101CC80092A099897F93AEB5A18B8B99A0968E919E
:101CD8009CA0A4A39C938990A5A0827995B0B19764
:101CE800737485867B7C8188877F7C7D7C77847F05
:101CF80071635E6F81806F7480847C6A4E43678BEA
:101D0800A19E79473448575B525C7180725248559E
:101D1800767E7161524A4860746F61697F85783F49
:101D28002F5A9DBBA883544C4757606768788D7FAE
:101D3800745A5870979F8E7F707373777F87908FD0
:101D4800A493665C74B0D3D19D74737B78758796C1
:101D5800A198907E7676859CA8B7A6908D92857678
:101D68008FA6AFA9957A7493A6B3AA988C8B8C8604
:101D780073637A9BA2927B726E838C818686918A2A
:101D8800867162657998997A566D7F968D69565CE9
:101D98007C7F7766585668736758505D6E726C5BC7
:101DA8005761777969615A5B61705B4F5E82998789
:101DB800673E465E767F6B6765695A5A5E60777ED6
:101DC8008471726B74868995899088856957708D3E
:101DD800BDC7BC8A7378757D82A0A6AFA0836E6CE0
:101DE80091A8B29E958D8C908B9AA7BFB5A3977337
:101DF8005966ADD1D5BC9D938A8E7F8188ADBAA135
:101E08008E6D677199A49F92807C75817A8691A363
:101E1800AE88563F5B80A7AF907B7B7458565E6E4A
:101E2800889191755A4B576260696A6E6A67596101
:101E380070717771634F5876867B5A5769797664E3
:101E480055577573614F5D70726B5759596979822F
:101E58007A6A6B728583666081B0B8AA846062759D
:101E6800858B928F938B827D757896B3AD9783859A
:101E78007D7A8F9BAEACA28464697FAACBDAAA86EE
:101E88007F776B658EAFC0B991696F8599978DA57E
:101E9800ABA08E6B7880A7B9936A4F4C78B2B7A580
:101EA8007C979E8C7F5E576A73847D6981756E8589
:101EB800857D69798C778068676E624B4057728040
:101EC8006F6B65747672786A7C7D5E4A364B777B79
:101ED80078645E676F653F4F84A39C894A364B8060
:101EE800B3A47E59575A5E5A617DB7B5886C575F5F
:101EF8006B7597B2B8B8826D75858F8C9A947F8F01
:101F0800A7998F869DA789737282A6BBB1A9ABB921
:101F1800947A64608193ACC0BBB9B08680737587CE
:101F2800B4D2C69F8981685A557C889A96838794CB
:101F380092847586908688706B78809A986D635FB6
:101F48007A878D7F76928C65525E5C5A586D76756D
:101F5800745B49515B686481958A7B5D47344B7932
:101F6800A1A8A5866F58443F3C72999C826C625424
:101F7800535A71848371606D777A7C7884909289E2
:101F88007B727990A098838065667693A8A2B5A69F
:101F98008467736E759AAEC5AB946A5A779BBAC05C
:101FA800D4D0B68A6665717E9BBAC0B8A07F767BAE
:101FB8007D758EB1AD9D89816C6B7A909995938A68
:101FC8009286787583958F82777B756F7A7E9086F7
:101FD80076626A73695C5F9198897C817A635A56E4
:101FE8005C5C514B4F64717B7B8379654E474A4AF1
:101FF800737E8A817A72594F566D81949A8265529E
:102008004A3949718393847A6664566B8291A285B2
:1020180070606A7189AABDC5A3836356646792A379
:10202800B9AE9F93867867838798959E92898381B6
:10203800A8AFB9B8B0B19891809194A0A2949780B4
:10204800928898A1A9A18C8682896A677A92A193BD
:10205800989596807D87838D787F706E646F808277
:102068008E796F59545067817D817B81685F636287
:102078007F77816D5E4A40484773889789776452B5
:102088004841617B928765675E605B7C9FA28A7B23
:10209800735A5F4D65757886848070747A859C9ACA
:1020A8009C948869666E829CAAC6B6AF9084766E48
:1020B8008695978B9793958E7D96948C8896A9A0F4
:1020C8009786A1A7A6A2ACAA948C8C98919C948F71
:1020D800887E878595A2A29D8A837480777574739C
:1020E80086889FA09A888C968C786163615E5F78F9
:1020F8008987887C84745B4C548087735C656768C7
:1021080060697D7E7B7274665A484B5A7376646048
:102118006665625E627377766C604E5365788C9FF5
:1021280094847E6C61465366666577928476727D88
:102138008686797E7B818374777F939096AAC2AADC
:1021480089858E917E77777C7B8187939496A2ACE4
:10215800A59884788E9E998F95A1A696A9B7ABA4C9
:10216800A4A59A7F6966688691939199A48D7B7BD3
:10217800877B8099988B757A8C9AA0A09D908C7695
:10218800666D6A6C6360737C69606D868C74676564
:10219800705F5D63645D5C7D888E8D836F6A735D3F
:1021A80050484D544D607072666F83826E58545D0E
:1021B8006F716D6A66686F7576848790A5A0896768
:1021C800585365665E778B94919799887A778F9B39
:1021D80099857D797A8F989FA6C0B8A49A887A79CC
:1021E80094A7957C72858F979FACB3A7A08B988B8B
:1021F8008993A4AE9A9C8A8A9AB6ACA0A69E8F6D43
:102208006E6B615B7BABA39183847C8282777D7EDE
:10221800887B6A626B7A7797AC9E816E6A605B4A4C
:1022280053554F4B56695A5964848B7162555660A1
:10223800655244546C6B628B91786B7A876E5D48FB
:102248004744464C546E80917C70625153699AA6FB
:102258009E725D68737B85A6A7AEA8967C5F5C6559
:102268008B979B93818596A89494989D8F7F88746B
:102278006F85BED0BCB4AEA49CAE9B8995A0968059
:10228800776F8295ADC5BCB09187848F8E868C831D
:102298008B807C7C93A4A9BBAE9974685D627163E2
:1022A8007180877B7E82797268808B8F72544E60D2
:1022B800795C6F89907C7C7F5F5347646E6E57486A
:1022C800505D7A6D676A7471626461624C5D888E74
:1022D800807B83707E796B6A767E615043575B742E
:1022E8009FABA88E77636F7472878D8D8B81708694
:1022F800A19EB5CDC2967D74767F6D7E9CAB978B83
:102308008C8C908FAEBDBBA3857186A08893BFD0FF
:10231800B69E9B94908B99A59B8F7875869C99996E
:10232800A5A98E6F767B786483ABA599918B869CE3
:102338009A86808A7B5B555B665A618D9D917A701F
:10234800717470676361685D4A4F6D73789DAF946F
:102358006552514A40465768736A6069726F5D6D8D
:1023680094966E414D5B4D517B989393856E686A48
:102378005D647D88765F6076818294A6A692756D8D
:1023880073646C839AAEB7A593A39A8D889EA68B27
:10239800695B6E79829AC7D9C9AE979187887E7E24
:1023A8009A9E7E77A2B7ABAFC9D7C29C7A6B616B96
:1023B8007C8695A19B828794938A9BBEAB7E6E6A2E
:1023C80058658D979BABA387787B736264828D7009
:1023D8005869756E74798785785E44435A635B875C
:1023E800A79676707062585C707365464350576460
:1023F800657A969B896D645D4A476D7765606A7CEE
:102408007F93888D96947F58535360627C92907D19
:10241800779195968A92999A956F60728C8EA5C2DB
:10242800BA9E788886807B7F9FA2A59386809BA38F
:102438009BADB7A7767F8F868191ABADBABAA589D8
:102448008A8F848B857B605F7480878AA3A1A49917
:102458008A6C576C70757A8C7E7B97958A717176C9
:102468006C615A4E394756717C7E7C6E7D7E735204
:102478004F5F5F60666E5D677684927E6C595F68B9
:102488005E4643656F7D7B7E726B75787366674FBA
:102498005678858383969EA496857259606980864E
:1024A800897C839F999987969E9390856E677F8B89
:1024B800A8B4AB9A8C9C99918287999692898B7EC5
:1024C8008693A8B6A690819E958E9193ABB2AEA541
:1024D800A1897E7D7C82767164758D908D8B9F98A5
:1024E8008E7876716061799997998F90998D7A66CF
:1024F80065696D5D505650505B8294836656686C72
:1025080060546E837B7B756F636668767C71634EFF
:10251800696F61525B787D7C685B616761718481FA
:10252800756A8495857573867E6F5F5C69747B7F39
:1025380098958F818A94848086A2A8988C9198987F
:102548008D8AA0A18D7C86A0968B8C99968E8D9174
:102558009E969091A1ABA2898FA9A29396A7AEA2AD
:102568008F8A8F8E7E737D8D85717790907A79872B
:10257800908A82898D8B7B7C818A836F72828B7132
:1025880066676F68606369685E62676F6E5C5365F3
:10259800736B76858783736F6C685D636965635158
:1025A8004E617060617578756E7573787C7C887A19
:1025B800786C6C76817F7C8789816A686E79787798
:1025C8007577817A707D8B8D8E98A49F8C87959E68
:1025D8009D918D7D7B776C75888D86919896868088
:1025E80084898B848E949B9F8E8C9BA3989CA09AA5
:1025F800867D888C8B7C7C777678727684908992BD
:102608009CA09685898F9B95918F85826F6675882A
:10261800817B7F878576787C7F726E73757F7B7907
:1026280083928F9095928A746D6F7A79706D635FDB
:102638006261667D7D7A83898B76747B838A848ADE
:1026480084827D70676D6D6E79767E70686A737E40
:10265800756F666F7978718699949A91968E7E7C5B
:102668007F8F7A77766D65594F516F748A959A8FF7
:10267800736F6D83899090958F888A899F8D8E8AD4
:1026880084876A6C667576747F7772636565818EF8
:102698009EADA4A688817D8896989C938E7A776350
:1026A8006B6F7185808F7B73767E87818783847D4E
:1026B8008584899C95A69BA0927976717E82827189
:1026C800726A605B668791A2918A8E7B7E7E8E920B
:1026D8009394908B81807788888E8E7B7D6D6867D8
:1026E8006E747D808082716F74919A9DA38F958D91
:1026F8008078808888918A8671625A617477867733
:1027080080837B746C7D7D8987898C87858B999480
:102718009A89808674635973848F856B5E50555689
:1027280072879E9B8E9481736A8092A09D91907D02
:10273800746B777C85866C766A65616A797D83744B
:102748007465636B849BA8B2938D8A7E768093951B
:102758009A847465545D6D7F8288787477736A6A29
:102768007D7D90928782747D8C9CA3A79C8A8C7EA9
:102778006D606B808A877064545D6F828C919A8FCC
:102788008778685E7495A9B1A092766E797B8C92F1
:1027980096868279604E51727E88878984757771B2
:1027A80084989E978A8C807A7C8B9DA9988474558E
:1027B800585E758B8C816F6C6664667B98A6A49155
:1027C8008160678291A3A6A68E90846E67687A8CD2
:1027D8009C87704C41566A8286928E948F716C7673
:1027E80093A2A791877C6E848B9996988375755E62
:1027F80057627E8A947F675B50606E8894A8A6951E
:10280800958175708695A5A5978E6A676775798095
:10281800856D706862627A8990947D756164739140
:10282800A8AAA69090877A6E7892999B8474594F3B
:102838005663757B86838E90846C677C91A09189A2
:102848007A74777E8D98A69793846C5D5E717E8A84
:102858007E7865535B6F8594A79D99907E69647DAA
:1028680092ABA195846C63667B84948B807A6B575A
:102878004E637B99998F846C606B8494B0B1A492F9
:102888007F726275839FA2917C604D46626E868ED0
:102898008A877E7561707C97A9998B7A6F6E8F9CF9
:1028A800A7AB9D90786E515C70819181735D5445A2
:1028B80060819AAEA497817F676D818EAAA497855F
:1028C8007E707984828D86857269524B6572939683
:1028D800917E6E5A5F8291AFAFAB9789715E7480BB
:1028E8009CA1998A755E546060768289837D79653A
:1028F80073798E9B958E847E6C80899BAAA999801A
:10290800715558627D948C7D68554C5F738EA7AA6B
:10291800A0877D6B6D7C92AEACA387765E5E728578
:102928009A9C926F5C48485F74929E9B8A755E6021
:10293800788BA8B5B399897B6A717C9EA99A775AD6
:102948004D485C6E8795957D6A696570798EA4ACF3
:102958009A7E736F808D9DB2B8A07C6A555A6A7D45
:102968008E88765C544A56738AA1AAA08878686BC8
:102978007C92AAB2AA917E6E67737E939F957054DB
:1029880049485E6E8AA0A08C715C506488AEC6B956
:10299800987A6E69738093ACA5906D554D51647BA0
:1029A80097978473706A657188ABAF9C7E67656E14
:1029B80091A8B3AB95765D56506079959C90745A02
:1029C8005A6075889FA2948271726E7F91A7B3A294
:1029D8008B756F5E617282958D785C5B5A627887C1
:1029E800A3AEA07D6F625F7C97B0AE9C857D7B7641
:1029F8007D7C8B9992765C4B3D5470889C998E8433
:102A08007A6866768BA9B4A6928470677B8D9CA041
:102A18009889735D474D667C8F8A76676462697FA3
:102A280094A4A79D95867E7474899EAEA9A37F5FA2
:102A38004D536D7A8687847B6E6B64627A899CA617
:102A48009980747B80878B98A5ABA0866F5E5B6945
:102A580072879488715A5A4D536D93B0AC9C877F96
:102A680071616C8093B3B99B93816D5B6F8A7E941F
:102A7800867264575C5D687F9794A29F937B6577A5
:102A88007B9AA799A78F8A7B6D675D5C7C9FA297CD
:102A98005F5F4851624F7FA0A7B8A28C7E5D7289A4
:102AA80097A79FAAA1838965646B7281797E7D60EF
:102AB80059716A69618A9FA6AE8175767A8C8C8F06
:102AC8009998A0A0918368646E667B83867E64571C
:102AD80047576A6F758BA3AD9881796E888E99A8D0
:102AE800A09F978E7E6C5A697D7C76757B69665847
:102AF800495D7597AAA18B816F7D8F999D8C9C925A
:102B08008F866666727E91979087695B5D6266655F
:102B1800858B7E9083797C7D7B737A8B97A3A49930
:102B28009F827F7E6D796D758E8A755647484559A7
:102B380082ABBDB19F94797A838589889B9C918665
:102B480067515C6B8598978C7D756A57555A798E55
:102B5800959E96817E8B79737690AAB6B298836C8F
:102B68006C766C6D716A6C75776A5A5862748C9160
:102B78009DA39FA08C7D83888A9B978B8F99917A40
:102B88006C514A5E7689877C7666534E6D8EA4A911
:102B980093888A86766B717D93ADAC9D8D878D8584
:102BA8007073747273635C58606C6B6B6F6D7F913C
:102BB800A0B9B9A68D736B717B88949DA5A0916C03
:102BC8003F435A6B828E8F8A847B7262627C8D8CC3
:102BD800877D7C8E9A9D8E7D717B929C9A928C7F4C
:102BE8007768595C58667E7E8295918576646872AE
:102BF800889D9E9F98958F7E74818890927A74792B
:102C0800787163575E6F8191867E869196898184FB
:102C1800858A8F888082848A8F80666364729194A3
:102C2800948D7D715E4F5B6D7A92A0A0907A7775D6
:102C38006F7E91A1A8948E8F848076666A7368628D
:102C480068687A8C888475666B737C9199A3AFAC3D
:102C58009876666E7483999E958476695D575C6AEA
:102C6800767F7D727E8D8B8C898180807C848A9230
:102C78009589807E736F7B8C9B979095876B625745
:102C88005262676A7E888888807C817F869DA1A23F
:102C9800A4938C9486787069757E7E82806F707537
:102CA8006E69646B7B85807E7F8D99968F877F7830
:102CB8008392989E998475757068605D6B72747A5A
:102CC80085818799958E826E61676F7D919E9F95AC
:102CD8008C8684766A73879696876F6E787E78700E
:102CE8006F66697A8B979393959B8F75605D6D87F7
:102CF8009B9DA696847E7465616765737B76727802
:102D0800808A89788084797C80929EA8ABA1918002
:102D18007A6E6562605B6C79777A7D818084867F64
:102D2800756969798D9EA89D9D9F8F89878D897901
:102D380073777D817A6E615D6765676964748BA25C
:102D4800B1A8938A8E8E8B7F7570777B7D867D8008
:102D580087888270636979726866697A848A888FDD
:102D680091969E9089776C7491A6A899827D736ECE
:102D780062636968787D8484868C878980837D8195
:102D88007E727579898D9C97959283847C7E726515
:102D98005A5B6D757F828C8C867E737873777B85A2
:102DA800909391888A898A8380786E6A6F78797E11
:102DB800828A86857B73777D89828589838A93A0B9
:102DC800938E8D82857B6F6061737E807D7B797742
:102DD8007B7B777E7C80817F787687909D979090AB
:102DE800827E80827A727779787979776E6A74765A
:102DF8007D847E766D71757787959E9998A08F7E74
:102E0800807C7978818F8D8A867B6C6470818789D4
:102E18007669626578808A97999B928F8D7F7A7A96
:102E2800817C726A737A7E827D7C787D7B71717B0E
:102E380080807878818489939B9F94939277676147
:102E4800677178828785897D736D70818B898185AB
:102E58007E82746A7E93A0A0998284959983615E2C
:102E680065718189836B69809286705A6F8C978DA2
:102E780073707FA2AE9B7162687A8A777D795558A4
:102E8800685F5479A6ACB9A08F9C80717A7D906DEB
:102E980067807B8B807D8C979594654A697B9B992D
:102EA800845D55697789898A8680A1AEA7A4838CB9
:102EB8008C87877D726282927A7A81737063667674
:102EC800694B485C809DA1A2B8D4A79A91939A7A3D
:102ED8007D674E53524B647C8EA2AAA29667414DE1
:102EE800678798918CA6B7C2B88B664C576666669A
:102EF8006186ACB8A9875A54564F5385918C9080F7
:102F0800A28E8F929CA3864F598483928D92967B32
:102F180070767B956E4C4F61757F93B1B8ACA07F8E
:102F28006E5D4C4561657B9098BCA7928F837B7BD7
:102F380067576E79958F849E9378606F83887480C5
:102F480089877C656D6B707A928A8E80505E788EE8
:102F5800938193B5BDA787746A604F626E78808944
:102F68009C97917B6A667361555F78959BACB1AC11
:102F78008F8789827D536498B8B188706264596775
:102F8800666871638394907A5E7BAEAA837B84942F
:102F98007F5B676E7D828FA7A57D677796BB8D5B0C
:102FA8004B617B838EA4A7887368747258628DA660
:102FB800A287858972646D6A787A616C8B9B999215
:102FC8009EB3A37E636B7F7E697D8B806F7F8B8BC7
:102FD8007C6B7A7B98633E57788C8998B5C19367E8
:102FE8005D7977696B818E8F8A8F8C735F657A893B
:102FF800805D6E8D9A876E78999581787F958073BC
:103008008198947882897C676984969B6D4D5B80F2
:103018008C767DA6B5987F7678664D61889C90936E
:103028009D8F785E677EA0895E68828973739BB383
:103038009A735B69786B7891A08978857F877C79AA
:1030480083877A4B4F7790908DA2C6BB897468604E
:10305800565666798888817D8284818395AB88708D
:103068007F71635F759598897D828C7E707B80996E
:103078008675776B77718485897C63698097949965
:10308800A1A9956F6876745E4C6E94999489716E57
:10309800757174909B756C7E9E9B878D9292736AF6
:1030A80069787C6B788B9383796A6D6E7C8793994A
:1030B800665A6A8DA5959CACA99169626D605E6B34
:1030C80087A29B94867972696F7C8F70515A7DAC08
:1030D8009E98A5A391695F71757C898FA29B856E67
:1030E8005C626E7C80917D595B6E908C8197AEA6F8
:1030F800876D6F837474798E9F8F847377797A76EE
:1031080085835C5568979E84969E967F5C58737EEF
:10311800858B9BA5908266666B6E7B8D96726979AE
:103128008E9E81798D968162566979727F8AA19B7C
:10313800887E7C7F8180819B7D505477A09887957D
:10314800A4976F575D67656E7892A3988780898684
:103158007D78887E5F5C72979D9299968C78605B8B
:10316800717B787E939E867168717889959E8C5E56
:103178005163899C8B91A3A1825F647D8A786D7B62
:103188008D84776A6E768A8E8C8B63546A90A29649
:103198009DA39788685D67757877829BA092766B08
:1031A80070757E858B644F5A77979496A6A39B7CFF
:1031B8006D7E88867776888B826E606E7679778367
:1031C8007155566D919690A0ABA48B7372767F81E2
:1031D800849BA3917363677082838A7F5A5167893E
:1031E80094868DA4A188656284887E7C8C9892855B
:1031F8006F69728A868D825C4F5B7F99918F9B96EF
:10320800856158697B8695999F9C876A6A7F938FA9
:10321800868661565D7792918C9D978570616A78F4
:10322800737B8A999C81685D6D7DA8988D784E57CF
:103238006E918A7C92A89A7057636C7B7A7AA3BA4B
:10324800A77C5C6875817B7666556F89AFAB9CA55A
:10325800928163436484837F78909A868F7D738894
:103268008287978C72535C918E8394A5A27365694B
:10327800767E636F969E9C7F5A6781989B7B654D8F
:10328800547E90C5A99DAD8C896C515C6F7B8B7900
:10329800847C7775617A837E89877A5A527E999A77
:1032A8009886818D929B839683738182908E77779F
:1032B8007F7A958B88623B3D63A2B39091A0A596D7
:1032C8005B57697A8E9B979B8E938174726D838707
:1032D800856D5D74A0988980858D81776C728A87E9
:1032E80085787378767F7F767F949B9C5647547356
:1032F800A18E8D93999E8C6D777468707B94989B42
:103308009176727074747F754C5573959C94939BE9
:1033180092836A5E818485827C8C8C7C796E7C9CAD
:10332800A19E815A4D557C9B827C81988E6C6B77CF
:103338007B7E7E859C9D986F6F797F8B8687684B97
:10334800648FA7A9A3A08B846C51526B7B807B7F71
:103358007E7C7B726E75919AA485696283A5A79C11
:10336800938E8C7B6A75757A7878808A897E635F9C
:10337800757F7D826D505375919FA2A5B6A99871EE
:10338800657680847A737E8A8E83716E818A827470
:1033980059525B83A49685898A8A7570787F8C8157
:1033A80086898F906F6B76808D9A91604852769D52
:1033B800A8A59B9A968962567B7A6B6B788A8C81D2
:1033C8006E60829A97916C554E70A1AC8D808EA0DC
:1033D8009A7E7C7879907F7C81776E56637584833A
:1033E80093864F467299B19D9AA0948E64657D8F9D
:1033F8008E8A87919185795F5A81898C76494D5853
:103408008CAC90858D979C7A66607C989C8F87841D
:103418007B71616E7B839392715B5B839EA69D95A6
:10342800938F755256737D72748691989A7C737CCB
:1034380090998E6D4B4B77A0A89792969D8B65645B
:103448006C8A988D8481847D605F646D76848463E2
:103458005868889A9EA19C988A71717D8F87787424
:10346800828F897F75718C978D7B4D43537C9990A2
:103478008E959D967B676C7B858E89908C8C8370EE
:1034880074838A898970565F829C998D87827C674C
:103498005D65878D817B8489887F686B829DA29E0C
:1034A800704C5579A2A085858A9D8A6D667284883C
:1034B800857E888685726E737D818875534D6EA072
:1034C800B39E9488838365637B8F8E8B7D8F8C8876
:1034D8007E656E82949D7C56536B9DA88679808C00
:1034E8008E695E657E8D837B838D8E88787E8F92D4
:1034F80094865E4B6292AE9F928A80805E55657814
:103508008379718394948774728697A18E624B57DE
:1035180087A9A68F92989B7A606273858474717A62
:1035280075776E6E7E8C959D7B5E5577A2A99A9471
:1035380092968266656F87847B7A8383806F6770D3
:10354800878F9178574E6C9EAEA2959D988D685B3B
:10355800677E8A8A7E8086887C63697D8C998A5A90
:10356800516194A59A938D938A6E63718791827E37
:10357800858C89736661738485845B495E88ACA990
:10358800A59F9E97755D6477898C808189908975E0
:1035980069737D828265545B7EA1A4948C8F95812A
:1035A80067687D9392827D838582726F7887898C24
:1035B800704E4D669AAB998A8C9288695F70879233
:1035C800827E7E8591847C73888D8E774E4A67993A
:1035D800A7968C8D8986665565879A9C8580848593
:1035E800795E5E7290928C5F55709ABAAB918187C2
:1035F8008A7864687A8D8B7975818684796B8095F1
:103608009487624A557DA4A896948B8A7B5F697CCF
:103618008C917B7888948B7167758B8D815D484F11
:10362800789FAE9E8F86857D63607087938A7F8939
:103638008F917C6D7B9392926D5258709DA19B9750
:103648008F887A5D5E70899A8D7D757C8B81726CAE
:1036580080929D7C514859A2BEA58F787189796A5C
:10366800706D7B71758D878279718BB6B69D704050
:103678003C4E7A8D818590A696756B7C95A3947344
:10368800849392826C677791A58F51455D8BB5A025
:103698008582817F6C5E71797C808195877A70667E
:1036A8007D989A9C82584D5C8BAA9680808385670A
:1036B800576D95A69D75655F75887881828F9C9BEF
:1036C8006D495F8DADB3A19793997B5557657F8AF7
:1036D8008C8C8D80736D778B9693875B4C607CA800
:1036E800A1918E8B8E6A4B5980A2A28775767E7CBB
:1036F8006E6678838C9674543E5F97AEA38D8585ED
:103708007A6B696F78828A888B8A907C7C82888CB5
:103718008F734B4C6699AEA4979A968D6457749A9A
:10372800B0987870758A82665A6D94A2965A3F55F9
:1037380097BEA9856B778C7E635B6B919F90776B47
:103748007B827D77829C9D87543B4C7AAAAB968777
:10375800848A79686B768E9F917F7D8F9C8676763A
:1037680089969D754B476FA8B0998477767D70725E
:1037780075889480767E848267617794A699724A68
:103788004E6990A2988884847E61546884A2A29924
:10379800897B78635D6E88989986605D718FAA9E33
:1037A80093959192735D66708594999A8A735C5D1E
:1037B8007C9AA09681584A587E99878A9C9F9565DD
:1037C800435781A49D81818A8C795F566B8A969034
:1037D8006A464879AEB09E9A9996754E4B678A9913
:1037E8008E8584868374778D9E9D936C4A577BA1C2
:1037F8009F8C8C92A08C57426087A8A69279757C82
:10380800746C6C808F997D524A6C9BB39D918E909D
:103818008060596B84928C7B807D7A6B6E7E9197E9
:10382800A28754435388AAA08F8B8E8B6B616D8CB3
:10383800A19986827E827A717A7F86919472534B9F
:1038480076A6B29E938A806251637E8C88767A8847
:1038580081796D778F9F9C986F5455759FA58A7E47
:103868008797855A506589978B8284807D696470B3
:103878008C949A8560506CA1B7A7908E908C6E57E7
:103888005871878A828D8D8568586B909EA8936041
:103898004F5D91A79683838D9776565573969C8C2A
:1038A80081787B73666A7C8D94906D5C5E829EA441
:1038B800A09D99906F53576E818582898E8A745C1A
:1038C8006788A3A0936651618CA6A08C88898F8293
:1038D80060556985999B95917B6A5A6177918F8C20
:1038E8006C56607DA2A59A979C967E524F698A98DD
:1038F80087767D878C7862668298A0855547619621
:10390800AC9D8D8F938B6E545A77929E96948F842C
:1039180074656278879089645E6D92A7998E969B8C
:1039280093684A536D8A908386888C816F748598D2
:103938009B8E6549507B9CA0928E928F7B5F5A6BC1
:103948007C888B9093877968697A8C8A91735C5CA0
:1039580079A1A89D958F8D7953586E8C958D868603
:10396800838065637B959B977A51506F9BA4998C54
:1039780091948A61526681918D8387887F6A5E6F90
:10398800899296845951628FADA794908F8D664F16
:103998005E768E8F83888E8978656E859696916619
:1039A80052577EA9AA969191937E5B5868838F8916
:1039B800868B85776765758E9095765A5A719AA722
:1039C80099989F9B85595469818B83818D908669CD
:1039D800606E878A8F7A58536692A9A18F95928BC9
:1039E8006F616F86918A808A908770646981888701
:1039F80081584E5B89A7A899989B98775A647B8AC7
:103A0800877E879088776A757E817E7E634F5B8527
:103A1800A8B2A099938C7A5B627E948C837D888A05
:103A28008778757A89817B714D53739DB2A0918B8C
:103A380089856D6C7C96968A77747C7A767B869479
:103A48008E7F73534B5C84A5ACA19C8D8062515FC3
:103A58007687888A8D8F83756F7C8A8F908F724C5A
:103A6800496E93A795A09D8E784C58748B89828453
:103A7800958F877673848A8688805B5A7393A49A15
:103A8800949395845E5A627D7A757E848977748270
:103A980083868F9093715E5E76939FA5A298826FBE
:103AA8005D6586898E8A827E676768767B817A7093
:103AB8006E5D6A89A3BDB09A937C755658777F85E9
:103AC800797C868D857C77787F707D8C7257608C49
:103AD800A48C8F9AA99C746D7185796E70868C7987
:103AE80077818E7D77717B6857668EB0B5AD9E9C69
:103AF800806A4D5D76716E75898E837E807C797A59
:103B0800798181655A69979D9199A19E856F728285
:103B18007F827B7E847C7671898C7A73727B564A2D
:103B28007196A4A4A1A2A1907D6F7B72646474961F
:103B3800948B8887857D73727A60566389B1A59561
:103B48008A948661526B858C8379968E8A7F788E6B
:103B5800827774837C63667F928E85919E8F826C58
:103B680074786F66608098968F898A887C7A766781
:103B7800586380A9AF9E989A99725B637277747341
:103B880079878785868A8B7A65697668667697A845
:103B9800A7A5A1938176676A69696B7892938383F5
:103BA8007D84857872686063788DA1A2A2A29C89C1
:103BB8006E6574786C6B717F88928D8C918A715A5E
:103BC8006260586A879EA09EA29B9789796D6666F7
:103BD8006D7078878986848888837C796F6D76771D
:103BE8007E898782838C8F8D8F9A9484766F76787E
:103BF8007E7F7B78746F71777978757C8885838A06
:103C0800878488878481858C898C8A847A7C817B67
:103C1800766B6C6E707B7B7D7F807D7D7E7C8592F4
:103C28009D9584808A87858084837C7D766E727278
:103C3800717C7D7E7E7E87887C82828B8885837F6F
:103C480083808B8B8E8B817469696A6C7B86848395
:103C58007C75727781898F92897F868D8A8C8C8E0C
:103C680084746D6C7271767C7C7E7E7B7B827D7FBA
:103C7800878F8E7F807A79848D908C9092807371F3
:103C8800717375767373777B807E80838287847D7A
:103C98007C858C8F8E908E827E7873767477787818
:103CA80078787B7D817E797B87867E7D7E8389940B
:103CB800958D898986837C7772737A757474787E1A
:103CC80081817B78777D81838A8E89878E8E807EBD
:103CD80083837F7C7D7D7C75737174716F7882813D
:103CE800818583837E848B9394978F828083887D5C
:103CF80075767373726C6D6F798086847D797D8437
:103D080081848D98978B85888B8D8B878077756C50
:103D1800686A6A6F727E7D7274777B828C959797DA
:103D28008D8583899592887E7F7A736E6E70727A9C
:103D38007E797673717981807E8B978D84868C935A
:103D480094988D7D74757B77787472797F7C716CAB
:103D5800707B80858881828282848E9792918A8006
:103D68007977797A737075787B7772737E878180BB
:103D78008285868284888D8F938F857C7A7D7975FC
:103D88007474767C7D7B7471787C84867F7E7F8476
:103D98008E95958E8D8C85807C79777474797A78F8
:103DA800747472767C7F828387837D808487919206
:103DB800928D857D77787773777F7D7772686C7859
:103DC800878F7F7A757C8C8B8A8F919B9C8F7A7278
:103DD8007978736F778689827B706D707F87857D30
:103DE80081909A98939089877A6F6C69767D787AB2
:103DF8007C877E6D747E6B5F7097B7ABA9B4BDB5D9
:103E08008761555248383D5D828D8F9699978F8A84
:103E18009283727485A8A18E8C929174564E5155D6
:103E2800566480A9B5AAA29792877A776A524855AC
:103E38007C837C8695A38F6F707F87878293A18C04
:103E48007B7677827A6165685952658E9E9895B0BF
:103E5800BEAC756A75787C747F878C89877C7A7626
:103E6800726B71684E576B8F8C859DA6AE85658188
:103E780099A3A3A4AEB1998B80766862636F634CF3
:103E88004D6E8B786C89A69A744D6A838770627AB6
:103E9800746B5C636D5B6271919F8F95A3B8A997F2
:103EA800A3B7AF937C72828A8C888F93847A81833C
:103EB8008587797F85727080969B7E7C83896E4228
:103EC8003C516B6D7488ABA7998C89887E707A8415
:103ED800707685A4AC9693A7AFA87E69738582880F
:103EE8008CA1AD8B7E685D535160775D51667C8A8D
:103EF8007B6D78877E64454F636969717C826A53FC
:103F0800484B4F4C56777C6D7889ABA28E9EB2AEEB
:103F18009B7478919EA3A3B7C7B99B9FA3A5958FC0
:103F28009E9A7A7C8CABB296A1AAAE9F7C69737874
:103F38007E808498998175767C828288977C768841
:103F4800A3BFA6A2AAADA281626A73787E78828E88
:103F5800775E5B5D6665626D60525B6D857F706BD9
:103F6800757463423A4F5B65696C7E785D524D5358
:103F780059616C6E565769818A7C7B83817256447D
:103F8800566373777E949585716D777D78827F65AA
:103F9800595E7D948681889289674E53676B6E72ED
:103FA800848D80696C7983838596817784A3C6C163
:103FB800B5B9B8B9A78C8F999EA09EA2AEA58C7EE4
:103FC800808B8B8C9788696073938B7573798173F9
:103FD80055576C737F7C808F8F8475717A82818D41
:103FE8008F777281A1B4A4A4A8AEA8877883888BA0
:103FF8009293A5A7988575768284888B6D5F6A8D64
:10400800A69B8B929995785D6E7C8188869196881F
:104018007B6A6C788186927F686B83A8A79A9BA13C
:10402800A089626472787E7C86928573625B6A730B
:1040380076776A48465777857573787B6B4B3D5220
:104048005E6A6E6E79705F524D5A67727F806155F5
:1040580065889F9389878E85665164777B79748696
:10406800887C6A62697C84868D6E5959789E9B8C9F
:104078008B94998065697882878C95A39A8A787AD7
:10408800869198A59F82798CABB19C959A9B916EED
:1040980069757C817D879793836A6370808D91941D
:1040A8007468749BB4A497979E9A806D7E8C938E47
:1040B8008C9293837469707E898B8B785E5F779816
:1040C8009688868C846E555D6D777D7C87908C7A1A
:1040D8006A65738391998F716A809FB19F989DA338
:1040E8009A8478858C91979599988F7B74798E9B13
:1040F800A19E80666E8EA5A09494938A6E5C63746C
:104108007E7F7B7C8178645050627A83856B4A4BD2
:104118006990907F7C878C79584F5E6E7B79777534
:104128006D5B4A49566D787F754F4155798E837A14
:104138007F83755D4B5E758087898F8E7F66626E23
:104148008A9EA1997A5E6787A3A396979A94795ACB
:1041580059707E8B8B8B8E7E68575D76939B9C8B7C
:1041680069637698A6A09EA4A390766A8398A4A370
:104178009CA1A18F777482A1ABA5926D5764839A95
:104188009C92989B8D70585F7D8E948982837A6506
:10419800565E7391918B734D4B5D7B8E858C9289A6
:1041A8007A5E5774899B9A8D918F806E6F7FA7B3C3
:1041B800ADA67C69738BAAADA4ACA4987E636F8707
:1041C80098A6978F907E6C5B607F9695967D544FEE
:1041D8005D84A29EA39D8A7C655C788A9D9F919050
:1041E8008878676A7B9CA3978C5E414B658D968E19
:1041F8008B7E6F5642506E8284726766614D46555B
:1042080070807B705A342F4B769592847F7A6A60DF
:1042180051708A9191828283766A6C7EA2A7A0915E
:10422800664E5577A4A8A39B9289705E6E8996976F
:10423800827777766B636A8195928F7A54526C99FC
:10424800B2A5979898877466819DA2A2918D908453
:104258007C7A839EA29A93644B5279A6AA9C9492E4
:104268008278636E8994A08E808377746B70869849
:104278009E967A55536C99BDB59F9E8C87735D77D2
:1042880082959B898A93826F707CA2B9A8985E3CBC
:10429800455E929E939393837559678D9F997D6D23
:1042A80069645B697A94A6A3937D564E759DBDB1EA
:1042B8009CA3978F806886929A9C9195918172723F
:1042C8007E9298917F5A2F3D5E8C9984816A5750CF
:1042D80048506D7E837452454B4754596D8582779B
:1042E8006F493C5479A5A39589817A766276869040
:1042F8009582838377727681A2AE9A8066384872F7
:104308009FC0A8928571675963868D8C7D62697894
:104318006C69687896A18F866A596A8DBABCAF9D18
:1043280092847A6F7D92959A8B808A8682818B9D02
:10433800AEA4856F48557AA6C1BA9C8A817B776AF4
:10434800858C8E8171757F8980717187958F88744E
:104358005053739FB59F8680716C65617C8D928D7B
:10436800797A83807D7E8A9C9B878667576487B32A
:10437800C6AF918B867F6B727F8C8C847F818C8596
:10438800777886A1A38D85614A5F8AB0B9998375CC
:10439800686B5D6C8290877F746E7269696D767EDA
:1043A8007C737D614B5179A7A48E7E7C74675966B6
:1043B800798685796B6C736B6B727983897B726391
:1043C8004F5F8097A4907774736F5F5F74939A8B35
:1043D8007A6A747E746663738A8A817E6454688696
:1043E800ACB59C846F6866626C8096998E7D727B92
:1043F800827B716E83969A988F74526089BACEB117
:104408008970697376788A989E9484736C71777BC7
:10441800818B9FA897866D556080A6C0B292796FF0
:104428006F6C707A8D9D9E8E73666E7D848C8F9076
:1044380092847B8078626381A5B2A7907F7C7B772A
:104448006F74808E938A796D7389938B7D7F8D903D
:104458008982745B567297ADAD907A726F665F66AB
:104468007994A1988A7C717072757781898A848021
:10447800796557688CADB8977563606063717E9A8B
:10448800ACA080625C727F817E7E85898477736947
:104498005B5A759BB29E78606069757D7B858A8B57
:1044A8007B695D617486857E7D8389807777684EB8
:1044B8005983A7B3A17E75747773727F959A8B7BA6
:1044C8006C6A6C86918A8381858A7E74705E5C765C
:1044D8009DBDC49F736470797B73788994907B7158
:1044E8006671868E887C71757D7A7C80776D7A9806
:1044F800ACAF977A6D737D807E7D91998E7F716E5A
:104508007683857D787B8695948D7E605B7699B47D
:10451800B09272696E767E7E88959E90755F5868B7
:104528007E8C8789898B887C7F7F6C596A94B7B722
:104538009A7B67696F7A80808889877B6E6C7C94A8
:1045480094837C82898A807C7E715D6688B1C2ADE5
:104558008873676766656F8295968B7162687E92CD
:10456800897B7C838D847D83735D5F7EA9B8997216
:104578006368727978828D948E7E6D60657B8E8B90
:104588007E7783948F8281725C597099AFA285710E
:1045980073776E6C708598917C6B616877858D8375
:1045A8007C79828079786E585B769FC1BD966E65FE
:1045B8006E786E737C979D89756A76838C8E9188E8
:1045C8007E767778827B70707F9AA8AB9178686FD7
:1045D800787C757E92978C7168698288817B7C84EF
:1045E80089878689765D5A7B9FB09E8775707478B7
:1045F8007D80868F98907D61687C8A8A8387898888
:10460800817E8C835C5A74A2BBAC88746F6C7073A7
:1046180078808A8C816D666F89928B8084888D7C86
:10462800727B73626389AAC2A676626B7E87796D94
:1046380078898980706778898F887A71868177838D
:104648007F6E69748EAAAB8C6B5E6B788B8F789B50
:10465800AA9A936A606E6970695C67747C8A8474CC
:104668005F6795B5BEB298857E7A7C7E8A99B4AB31
:1046780086635B5B5B5D4C4E5A595C606C816D591F
:10468800637E9FAB90736F77858E8E99A9B2AF9A30
:104698009295A5BEAA82696964615A524D374460F1
:1046A80096BEBA9A888C988D837E74887E65595A8E
:1046B800606E76828A86878F99958778788EB0C95A
:1046C800BB8A5A4B494E4C49689DAA978778879F61
:1046D800A2938993A89F908B866F6577A1B7B3A69D
:1046E8008C8783878A889091857F635956697A6B0E
:1046F8005F57646F747885786C728FAAAE8F635435
:1047080062756D6261656C6156434D64738F887D17
:104718007E87908A77573B5A86B1C2B4926E6A7088
:10472800746B748FABB5A07D707D858386839492FE
:10473800878C917F6578ABD4D7BE96887F8787763C
:104748007F8C938E7C6A647A909B83717A7A83706B
:104758006A5D4D6883919F8D6858536077797E9F15
:10476800AA9F917F7D827E838C919A99939096716E
:10477800485175A6AD967679756D77707A889EB42E
:104788009C7E70778D90858489978D6D75604C506F
:1047980074A2B2A8796C67656A6D7E939F998067E9
:1047A8005F728891A4A08D93908E8A665B76A9D457
:1047B800D5B387787F7C7F87939E988B6D433D62C6
:1047C80074635055656F716360504056749DA3883B
:1047D8006D67614E5061718C907E806C67747574E2
:1047E8007268686F716F6751425A8BAEB091726987
:1047F8005A636E707A9EA89076665C718A848F88F8
:10480800949D8E87755E597BB1CABE97766A666538
:10481800707E8AA39F897C6A5D7B8B8F9189898F43
:10482800988E85686A8AAAC4B588686D7B818186F6
:1048380099ACAD967E748899978B818A879793896E
:104848007C5B5F7CA7ADA48E75746866626C757CB2
:104858007E7162545D65696775838A93827A6E5446
:104868005A82A9C8C19D877D837E7A889AB6B1A0ED
:10487800857B8A959F9998A2A9A79E8C79575F8670
:104888009CADA18264565250585E6E7E807E746DD7
:104898007283807A727D817C7F786C495888ACBB42
:1048A800AE87717477806F6C869BA38C735D5B6C2D
:1048B80069615C6A767E746A4E2E31507F8C8E7583
:1048C8005D5B585A626F83959385716361667376F1
:1048D8007D8B979E8980744D4B78A4BFB99571667E
:1048E800727270728396988A6D646F757A8080860A
:1048F8008E90837A785F567299B6BAAB8C7F818036
:104908008389919EA3A49B7C808990968D90939D8A
:1049180098938969576A9ABEC1A47F616461575E9A
:104928006C83848278655B5A5D6876818F989B8CEE
:104938008780696F8AB0BEB29B787479807F8295D0
:10494800A5A99D85707682898D8E8B8A8D8E8B7EAA
:1049580067557196A8AF9A7E6363646C828194945C
:10496800968C716F7D817B83899290877B786C535D
:104978005A7DADC6BA997D736C6C6E707E919890B5
:104988007459576876757572797770655A50374AD1
:10499800678CA38C71524A50595D69858D8F7E6DE5
:1049A80067727E787E7E848A91908A826863769820
:1049B800B1B4A587716E747371748E9C997F5F60B2
:1049C800656E6A70747A8278797D735F5E77A6C146
:1049D800BCA686746D6F79878E9CA39483686D825C
:1049E800908F8B979DA5978B8E816C5D719EBBBBBD
:1049F8009F7F706A666162777F8B8F7F6D5D6D7454
:104A080076756F7B8B8C848A78615A6C95B8BA9B63
:104A18007F6E736D68748899A4A08378788486897A
:104A2800918C999B99938880757481A0B4B89F855F
:104A380079777A75747F9BB1AD8D716E768A909116
:104A480098988D8380746B4F475E82A9B49E796A6B
:104A58005D5F6B696F6F7E877867666C7470637370
:104A68007B7E75696A6F685257759AADA7937F6D9B
:104A7800575358697F929D93765B607073665E6842
:104A8800767B807778745A546F99B6A97E625D6197
:104A98006C6E676F7B949F8B6D5C61737C777E8790
:104AA8008E8D858A947E5C5A85C0DACAA189827CFB
:104AB800898C939EA39D877B787B84898987929E26
:104AC8009481696D75676A7D9EB19B74677479700E
:104AD8005D516581918B7A6E6E79878982787C8742
:104AE8008E96908A6C4F5D88B6BEA47E6D7078767F
:104AF80067708B9FA79F897363687C899DA596843F
:104B080074728185716C86ABBEB5977C7C7B7B7D2E
:104B1800879DA39676605E6E8A90877C7D8D908750
:104B28007E7D7C5D5583A0ADA786757A7D6E5A5AC9
:104B380070899189725F606D75767D8285786F69FD
:104B48007578503E5384ABA885635A5E524D576AB8
:104B580084857769677070685D5F70888C7268702B
:104B6800756C5F7597ABA9968386846A565472A351
:104B7800B29B826A727478817D8F96949292927CAD
:104B88005D5D7B9DB4AC90867A6D676874879692FC
:104B98008178888479747695A2A3917B8A9F835DB6
:104BA800617EA5AE9A8C938C77665E728DA09A888A
:104BB8008788877C706E7387979C9B9B8A625B75DE
:104BC80098B5B1A0A1987D61627583918B8E939100
:104BD80082676682918E8683919C85585A7896A4BE
:104BE800978C8D9A89635E6D7F8A8B8E82868E897B
:104BF800817E818391949294947B697C8E898B9732
:104C08009591846666777B6D61809B98856F5A6500
:104C18005E515B697B7B785B4A5D7974728E8B7FB2
:104C28006F5B4A4A5D6678838C7D767C6968666FBF
:104C380079838A7F736562698784889AA2956C6490
:104C48006670757E7D86937878847F79747B7B889F
:104C5800968B6A6A77848D8B928B917E787A7C7634
:104C680070878F8E898A939D917B788A90878D8AA9
:104C780076778DA49B9799AAA5937E6F827C787B83
:104C88008B8B858585827F797170797A7A806E5E63
:104C98007289949DA19F7E7778716C6164778A820E
:104CA8007A8A9B826E7075778090867B7582969BD8
:104CB8009D97A9A4847E8078747D7E8A919C9E9815
:104CC800947A76838A797B87867E7886818595A291
:104CD800A794786A766E5E607C9182828F8C7D76EE
:104CE800716F6D737E7D6F5C6E7C757D92907E7446
:104CF800736B52486177756E6B82886E5B666B6505
:104D0800768078525C798284838B948F77706C6715
:104D18005B6266696E788C7970777F797479736471
:104D2800556F848B8092AD9E8B7C84705A5E6C70BC
:104D38007A7C86928A878E9479777E775B68898C6D
:104D4800869BB7A6979197876C5D6D83888193A59D
:104D5800918990967E7B817263687B807584A3A31A
:104D68009C8E9284645D7079686D8395958B8C8335
:104D780070757C73636A77838497AEA59E9B9478DD
:104D880061647A7A787C9196929B988D7C8780670B
:104D98006685968A8AA8B6A49A95916E5F777C6E86
:104DA8006D7E978F798087797D8879625E7D8B8328
:104DB8008CA6A5989089776268797A737784A09F82
:104DC8008A897E74807D5E516674777D95A9A190ED
:104DD80086755D4E5762625D63797E78787A6B6618
:104DE800685D4C586D72718AA3A08E7E795F5253AC
:104DF8006B6F6E707D978F7E7E7A7585776162772F
:104E08008C8895B4BEB09A847264606F7E867F8504
:104E18009D9B837B847F7E80605D73878A82A4C12B
:104E2800B799857C7569707C898382A4AE9E8F8BC7
:104E380082848D75616F848C8291B6AE908775730C
:104E48006357707C7D7B8E9C9787857B777E6447D4
:104E5800537B8B8A93A7AD9882736963616F88854A
:104E6800819CADA7918A87858A7C625F76929295AC
:104E7800B1B8A498857C7160797F8077809A9178A1
:104E8800707777777459557787918DA5AFA3917708
:104E980073726562697B7D849F9F927D7B747C8041
:104EA800684F627B898F8D969E947D63574F4F6BB9
:104EB80071634B6570818A91887D7A4D2C34566A6E
:104EC8006B688E9BAD9C865D4B4448656F808C9863
:104ED800806E6470728C775D647E9A929AB6B6938F
:104EE8007661767E78899A93827E8C877F7E8B8D99
:104EF800867751648A9A938C949D95918B8F7F675E
:104F08006776908D93A1A28A7E80868585665D6589
:104F18007A94A1C4C2AC80655A676166819194860F
:104F280093A08C7E776F7A786961819E988A99A51B
:104F38009C978C83795D5A7184877582958A87805E
:104F480081877F644C54698186A7C3AF8E6A5A6291
:104F58006A687D91948A87988C7D797F82876F5360
:104F68006992A08281A2AF9B8B706B5F5973909CF2
:104F78008C7D85877774788A9085605D77918E8B34
:104F8800B0A8917D7173685B52697D78737D867274
:104F9800686A646861394566898E7C9DAE977068D9
:104FA8005B5C5660808B8D7A81867A6E74868C8481
:104FB800604C6987918AA2AF9C867275736B5F712A
:104FC8008690827F918480838E878D6345658AABC6
:104FD8009D9BB3B1967C6E6F646274929891828542
:104FE800847A77808F9383565D7D989195B1AE983A
:104FF8007B707E7B71748D9F917F788787878D8C7E
:10500800958255547395948CA6B5A3836F73745F7A
:105018005D7A989882797F81797B7E8D8A5E5271DC
:10502800989D93A1B09E826568727073889F9A80DC
:105038006E747774768287895F485B86968698B5A2
:10504800B18F716C7A7165698B9D9781777F7B765B
:105058007C828B6E46557FA08E90A7A0896E5F6D6F
:105068007069708DA595776B79817C71778B7B538F
:105078004A6C969286A5AC95745A6B776D68789051
:1050880091806B6778787A838A8054456391A0947D
:105098009CAB9A7B54596C7076809CAC9E776A6EF8
:1050A800797B78868767555E86A0919AB0A98F66C6
:1050B8006273706F7091A49F816C70757A828B8E09
:1050C80074555F809B9793A8A993715B6F747573F0
:1050D8007E96978B7C7A81837E80876F5458789CE4
:1050E800A3A2B0B29B795869787878859D9C896726
:1050F800607289959597825A5669879290A1B0AA4D
:105108008A645D69686B728F9F9C886B6D75787D0A
:105118008A88685E6983958B98A3997F6870847A7A
:105128006E748A998B7B687784888C8E88675363C2
:1051380082979096AAA98F665A6771757D8FA399F1
:105148008368606B768691987B504B64879191A6B3
:10515800B09F7A5F616B676475A0ACA08462626679
:1051680077849186695F6E83878191A6A49068632E
:10517800747B766C7F90958E71727B898B8B886738
:10518800545977959699A69F8F70636E757773803B
:1051980093998F6C5B647A92989C805D526B8A8D30
:1051A8008C98A395786265717B7D82969A927E67CA
:1051B8006674848E97886B5D71898C899FAA9F8994
:1051C800696C777E7A77889B988D6F646C7A869401
:1051D800916D5C6787989398A093806260727C7CDD
:1051E8007B859996886F5E6D818E918A6D5F6182ED
:1051F800919497A3A799725867787D7B858F978636
:10520800736365778C9999795E5D7495908E9CA38C
:1052180095765F69757874788B988E7461627486F8
:105228008F92775B5A7E9A978F919B94785E607481
:1052380087828288918D735E637186959B8867608B
:105248007192A7A4A5A9926F4B495E757673828A5D
:105258008F816962637181928D75717F9CB0A7A4FB
:10526800A690754C46617A7C7479838A7E696063FE
:105278006E839B9E8775718FAFB3AAA6978A77684E
:105288007778756466778E8C7262727A7793988F66
:105298006C678CA1A59B948D7650425A7F9F948809
:1052A80090886C525653637D8FA0816B7E9DAA9F18
:1052B80098939090716E80787E676B6D7389828306
:1052C8006D85897F8C6E6D737E9C9DADBFB68F5E3C
:1052D80048505D7982899295947558415A79818BA5
:1052E800726A85A3B2A99D909B84786D62868E8F21
:1052F800756F70838362657D949D907D6C687D87F2
:10530800959DA4A8947B60566D7B7E7173818C8576
:105318006D757C85887C67525D85B4B9A2978F9A34
:105328007D5A53678A8A83837E85836F68687B8EFC
:105338009C927D6A70959A928A8D997B5E5D6B7E50
:105348007A78707C8A8878636F7C8B8675605073F6
:10535800A2B4A99D979A806A6064758D8D7D8582B7
:10536800897F6F6A73889E946E5766869B9B9FA100
:105378009C8E614A57718F8A7F82808A75656072B8
:10538800859692705F6280A1A0949DA7A8816458B9
:10539800667979767580979E886C6D80989B7A621D
:1053A8005B839F9E8D92A7A07C575264818C8580D9
:1053B80083878070656B7D88866C667894AFA38DD3
:1053C80085909D8E736063788B8078838E957F67D8
:1053D80060789BA8855A4C70A3AE9B8B9499896979
:1053E800575C74948D7169768C91806A707F826C39
:1053F8005A5E7CA9B9A78D838C8D7358526A95A380
:105408008B79727A7E7C777E989B7C56506C99B5A6
:10541800AB958C8E836152556C8C988B817D847F83
:1054280070616982847F74788192A19D9597958D2A
:1054380079655B637C8987838686858181757473CA
:105448006A5E69869BB6AE937D797A7064636E876F
:105458009792827378787D7A7F868270616B819269
:105468009C9F9A9C978575655F687D9191837B7CED
:10547800767578858C7D6B607385919393918E900A
:10548800887E6F69676E7B828682837C7A7B7B816C
:105498007B706971828D989B96857B777B838780EB
:1054A8007D838787786F6B74818B90887F736D7429
:1054B80078848D8B89858C8A847671767F888B87B2
:1054C8007B72716C6C7A8A95897773787D84868211
:1054D800837F78838F948F85777481847E707178C9
:1054E80084878681797E827F7F848A89817E7A8299
:1054F800888E898682807C787775716E78818F89AD
:10550800786B6A778B99947F767A868B9296928B52
:105518007A7B7F867B6F6A6F7780867C766D707A00
:105528007E878A848580878F9A99897A767A7C8221
:105538007672757B838784766966707C8A8E8D87A0
:105548007C7D85919C9A8B7B75787F827B78717343
:105558008189898270636678878889807E8896A128
:105568009B8783807B7978767470757F82847F7857
:1055780073747174798185858284919FA1937F71F9
:10558800757F8A8D7D66646E767D827C6E68718398
:1055980089867D777E899597948C817D7B7C7A83BB
:1055A800817E7A7576747F7C726E767D878B8B8927
:1055B800898D8E918E8279777D89908675726E77C6
:1055C8007B7D7A686B7783898885807D848B959EBF
:1055D800938276747B83858383787275767E7D76F5
:1055E800696470818B8F9090928892948D8A797675
:1055F8007E7F7C817C75786C6F7874726F7480851F
:10560800848C85878E9AA092807675868A897E7822
:10561800716A626F866A7F7C787A8A8588A07B7DCA
:105628008684989D806C72858F959D877864556C6B
:105638007680717F7B80707B8E857E7F8D739F8E59
:10564800A1988A9C968C5A5A60535B5D6C8D878BA7
:10565800847C6D8581728189A6D5D2C3B38A826A1A
:10566800624442575A719BA99E826773676E798418
:105678008A9CAF8C827A7380818E9C96928F6B788D
:1056880068637D7471718C8F97837E7878786EA04B
:10569800ADA79596A19B969490808880717B725B4C
:1056A8004B566B75777377797B96A5BDAE90957ED3
:1056B80087806F6E756E6162717569695E68778BD8
:1056C8009EABAE9F88859E9A858B7B8B836972592A
:1056D8005A5D5E666D5F4E4D51786A58645A6B76B6
:1056E80089878A7063787B8E7A7F878065646D741A
:1056F800705C5C5A7B848F9797A08B92B2C5B08FF1
:10570800898F948380838A92928A8C8B767E869303
:105718008E8D959C9B8E999DB4A09DA799A7918BE2
:105728008F8C818285869D7F797471908B999992EF
:105738008B87A9BDAC88827578786B684E403E46E9
:105748005350544C5F72756B56645C594A63787851
:10575800726B7666777B819180785C636E5957535C
:105768005E688586A49D91928DAEB5A69195848C30
:105778007C606266747789968373828E889B94A610
:10578800AF978E82909B988D9E8F939B929A9599B6
:10579800827899907262525F7B78819A94A2939BE7
:1057A800A9A09289827A87716D5C4F534F6A674BC3
:1057B8005E66627B6F66746F7968768A8B846171C6
:1057C8006A747A74838C7C6972715A4A565A7C92CC
:1057D8009BA092938F99ADB9B1A3A29E947D665E6A
:1057E8006A786784957C796B6973829695A6A28F8F
:1057F8008E89978981868A8B928D7F898D7E849602
:10580800867C787B797C746A8C9BA2ACA2AD9A8BDF
:105818008E938A857B5D747974797F6C4E5A6B6D33
:105828007B8B7779786A6F70869089787A757074CF
:1058380059727F7A82888368605D50446866759A79
:105848008FA69294A49A949C957D7F68636B777FCA
:10585800828972706E78818C9385958F9C858B8FE9
:105868008C978C9D91A0877987928D8DA07D736E82
:10587800696B798A8197A29E8F8D9FA0A299967055
:105888006D63616E5C60617A6E6A655966737D7678
:105898007A7A7D777480757C6F71716B7460707EB5
:1058A8008179846F5A59616E687C819C9A97948635
:1058B800A5B0A99BA18E8687676B756D6E888C884D
:1058C8007A6467707A8E96959D9C9C9F938A8C903B
:1058D80091908C797D838780868F807778777E8298
:1058E8007381838B97909B9EABA9959183868179D1
:1058F800766A5E6E6F6865505F6576827F77706CDA
:10590800686E7D918D90868173636A6772767B7D00
:105918007477716E646E76849695988E8F8C9D924E
:10592800919A939783736E7068777F83877A78727A
:105938007C83909B979E909A93908E7E837F847AA7
:105948007D8189887D7F7B7E72767D828587908D3B
:105958009B9D9793979A999987826F696A61625616
:105968006467675D5C626E7F7A7F7F8C8B8A7C83DD
:10597800837974636B6B6762595E60677A7D757251
:105988007378827F908C9091929DA0A89C9890911A
:105998008373666F7977767276706E7579868F976E
:1059A800979D99909696978F998F9387746F68783B
:1059B800717A838B877668697B7E828796A0A2A39B
:1059C8009B9B9199948F8F77726B6E635C6A6D6FF6
:1059D800645D65777C7C7682908A85828C89837900
:1059E800706964645F6871707782867A66667279B6
:1059F8007B888F8E8A8788949590918E938F816803
:105A08007174777D83908574686A717A7C8A9895B9
:105A18009798A19F918D888F8B8C7B7781746F74F9
:105A280082888071767A81828894979B93959FA7C4
:105A3800B1A0968D786B63665B5B6470786C615E11
:105A4800697A7A758085857C777B818275727070BA
:105A58006E666660595F6C7A7A75737376797D8342
:105A68008A90868E9498A399969895827A706D718B
:105A780075747A7F76746C8292929B98928D8C93CF
:105A8800969C98969185776B6A707172747E9A92DB
:105A9800827775828491939C9792948C9394929137
:105AA80091858377696261636D776B5F596A7C76EC
:105AB8007A767A7A7B807C8B8B8D857A726E6B6B2B
:105AC800696D71708282786D6967677D8592918949
